{
  "contractName": "Wallet",
  "abi": [
    {
      "inputs": [
        {
          "internalType": "address[]",
          "name": "_owners",
          "type": "address[]"
        },
        {
          "internalType": "uint256",
          "name": "_numConfirmationsRequired",
          "type": "uint256"
        }
      ],
      "stateMutability": "nonpayable",
      "type": "constructor"
    },
    {
      "anonymous": false,
      "inputs": [
        {
          "indexed": true,
          "internalType": "address",
          "name": "owner",
          "type": "address"
        },
        {
          "indexed": true,
          "internalType": "uint256",
          "name": "txIndex",
          "type": "uint256"
        }
      ],
      "name": "ConfirmTransaction",
      "type": "event"
    },
    {
      "anonymous": false,
      "inputs": [
        {
          "indexed": true,
          "internalType": "address",
          "name": "sender",
          "type": "address"
        },
        {
          "indexed": false,
          "internalType": "uint256",
          "name": "amount",
          "type": "uint256"
        },
        {
          "indexed": false,
          "internalType": "uint256",
          "name": "balance",
          "type": "uint256"
        }
      ],
      "name": "Deposit",
      "type": "event"
    },
    {
      "anonymous": false,
      "inputs": [
        {
          "indexed": true,
          "internalType": "address",
          "name": "owner",
          "type": "address"
        },
        {
          "indexed": true,
          "internalType": "uint256",
          "name": "txIndex",
          "type": "uint256"
        }
      ],
      "name": "ExecuteTransaction",
      "type": "event"
    },
    {
      "anonymous": false,
      "inputs": [
        {
          "indexed": true,
          "internalType": "address",
          "name": "owner",
          "type": "address"
        },
        {
          "indexed": true,
          "internalType": "uint256",
          "name": "txIndex",
          "type": "uint256"
        }
      ],
      "name": "RevokeConfirmation",
      "type": "event"
    },
    {
      "anonymous": false,
      "inputs": [
        {
          "indexed": true,
          "internalType": "address",
          "name": "owner",
          "type": "address"
        },
        {
          "indexed": true,
          "internalType": "uint256",
          "name": "txIndex",
          "type": "uint256"
        },
        {
          "indexed": true,
          "internalType": "address",
          "name": "to",
          "type": "address"
        },
        {
          "indexed": false,
          "internalType": "uint256",
          "name": "value",
          "type": "uint256"
        },
        {
          "indexed": false,
          "internalType": "bytes",
          "name": "data",
          "type": "bytes"
        }
      ],
      "name": "SubmitTransaction",
      "type": "event"
    },
    {
      "inputs": [
        {
          "internalType": "address",
          "name": "",
          "type": "address"
        }
      ],
      "name": "isOwner",
      "outputs": [
        {
          "internalType": "bool",
          "name": "",
          "type": "bool"
        }
      ],
      "stateMutability": "view",
      "type": "function",
      "constant": true
    },
    {
      "inputs": [],
      "name": "numConfirmationsRequired",
      "outputs": [
        {
          "internalType": "uint256",
          "name": "",
          "type": "uint256"
        }
      ],
      "stateMutability": "view",
      "type": "function",
      "constant": true
    },
    {
      "inputs": [
        {
          "internalType": "uint256",
          "name": "",
          "type": "uint256"
        }
      ],
      "name": "owners",
      "outputs": [
        {
          "internalType": "address",
          "name": "",
          "type": "address"
        }
      ],
      "stateMutability": "view",
      "type": "function",
      "constant": true
    },
    {
      "inputs": [
        {
          "internalType": "uint256",
          "name": "",
          "type": "uint256"
        }
      ],
      "name": "transactions",
      "outputs": [
        {
          "internalType": "address",
          "name": "to",
          "type": "address"
        },
        {
          "internalType": "uint256",
          "name": "value",
          "type": "uint256"
        },
        {
          "internalType": "bytes",
          "name": "data",
          "type": "bytes"
        },
        {
          "internalType": "bool",
          "name": "executed",
          "type": "bool"
        },
        {
          "internalType": "uint256",
          "name": "numConfirmations",
          "type": "uint256"
        }
      ],
      "stateMutability": "view",
      "type": "function",
      "constant": true
    },
    {
      "inputs": [],
      "name": "walletAddr",
      "outputs": [
        {
          "internalType": "address",
          "name": "",
          "type": "address"
        }
      ],
      "stateMutability": "view",
      "type": "function",
      "constant": true
    },
    {
      "inputs": [],
      "name": "walletBalance",
      "outputs": [
        {
          "internalType": "uint256",
          "name": "",
          "type": "uint256"
        }
      ],
      "stateMutability": "view",
      "type": "function",
      "constant": true
    },
    {
      "inputs": [
        {
          "internalType": "uint256",
          "name": "_amount",
          "type": "uint256"
        }
      ],
      "name": "deposit",
      "outputs": [],
      "stateMutability": "payable",
      "type": "function",
      "payable": true
    },
    {
      "inputs": [
        {
          "internalType": "address",
          "name": "_to",
          "type": "address"
        },
        {
          "internalType": "uint256",
          "name": "_value",
          "type": "uint256"
        },
        {
          "internalType": "bytes",
          "name": "_data",
          "type": "bytes"
        }
      ],
      "name": "submitTransaction",
      "outputs": [],
      "stateMutability": "nonpayable",
      "type": "function"
    },
    {
      "inputs": [
        {
          "internalType": "uint256",
          "name": "_txIndex",
          "type": "uint256"
        }
      ],
      "name": "confirmTransaction",
      "outputs": [],
      "stateMutability": "nonpayable",
      "type": "function"
    },
    {
      "inputs": [
        {
          "internalType": "uint256",
          "name": "_txIndex",
          "type": "uint256"
        }
      ],
      "name": "executeTransaction",
      "outputs": [],
      "stateMutability": "nonpayable",
      "type": "function"
    },
    {
      "inputs": [
        {
          "internalType": "uint256",
          "name": "_txIndex",
          "type": "uint256"
        }
      ],
      "name": "revokeConfirmation",
      "outputs": [],
      "stateMutability": "nonpayable",
      "type": "function"
    },
    {
      "inputs": [
        {
          "internalType": "uint256",
          "name": "_txIndex",
          "type": "uint256"
        }
      ],
      "name": "getTransaction",
      "outputs": [
        {
          "internalType": "address",
          "name": "to",
          "type": "address"
        },
        {
          "internalType": "uint256",
          "name": "value",
          "type": "uint256"
        },
        {
          "internalType": "bytes",
          "name": "data",
          "type": "bytes"
        },
        {
          "internalType": "bool",
          "name": "executed",
          "type": "bool"
        },
        {
          "internalType": "uint256",
          "name": "numConfirmations",
          "type": "uint256"
        }
      ],
      "stateMutability": "view",
      "type": "function",
      "constant": true
    },
    {
      "inputs": [],
      "name": "getOwners",
      "outputs": [
        {
          "internalType": "address[]",
          "name": "",
          "type": "address[]"
        }
      ],
      "stateMutability": "view",
      "type": "function",
      "constant": true
    },
    {
      "inputs": [],
      "name": "getTransactionCount",
      "outputs": [
        {
          "internalType": "uint256",
          "name": "",
          "type": "uint256"
        }
      ],
      "stateMutability": "view",
      "type": "function",
      "constant": true
    },
    {
      "inputs": [
        {
          "internalType": "uint256",
          "name": "_txIndex",
          "type": "uint256"
        },
        {
          "internalType": "address",
          "name": "_owner",
          "type": "address"
        }
      ],
      "name": "isConfirmed",
      "outputs": [
        {
          "internalType": "bool",
          "name": "",
          "type": "bool"
        }
      ],
      "stateMutability": "view",
      "type": "function",
      "constant": true
    }
  ],
  "bytecode": "0x608060405273874069fa1eb16d44d622f2e0ca25eea172369bc16000806101000a81548173ffffffffffffffffffffffffffffffffffffffff021916908373ffffffffffffffffffffffffffffffffffffffff1602179055503480156200006557600080fd5b5060405162001f6238038062001f62833981810160405260408110156200008b57600080fd5b8101908080516040519392919084640100000000821115620000ac57600080fd5b83820191506020820185811115620000c357600080fd5b8251866020820283011164010000000082111715620000e157600080fd5b8083526020830192505050908051906020019060200280838360005b838110156200011a578082015181840152602081019050620000fd565b505050509050016040526020018051906020019092919050505060008111801562000146575081518111155b6200019d576040517f08c379a000000000000000000000000000000000000000000000000000000000815260040180806020018281038252602881526020018062001f3a6028913960400191505060405180910390fd5b60005b8251811015620003f2576000838281518110620001b957fe5b60200260200101519050600073ffffffffffffffffffffffffffffffffffffffff168173ffffffffffffffffffffffffffffffffffffffff16141562000267576040517f08c379a000000000000000000000000000000000000000000000000000000000815260040180806020018281038252600d8152602001807f696e76616c6964206f776e65720000000000000000000000000000000000000081525060200191505060405180910390fd5b600260008273ffffffffffffffffffffffffffffffffffffffff1673ffffffffffffffffffffffffffffffffffffffff16815260200190815260200160002060009054906101000a900460ff161562000328576040517f08c379a00000000000000000000000000000000000000000000000000000000081526004018080602001828103825260108152602001807f6f776e6572206e6f7420756e697175650000000000000000000000000000000081525060200191505060405180910390fd5b6001600260008373ffffffffffffffffffffffffffffffffffffffff1673ffffffffffffffffffffffffffffffffffffffff16815260200190815260200160002060006101000a81548160ff0219169083151502179055506001819080600181540180825580915050600190039060005260206000200160009091909190916101000a81548173ffffffffffffffffffffffffffffffffffffffff021916908373ffffffffffffffffffffffffffffffffffffffff160217905550508080600101915050620001a0565b508060038190555030600460006101000a81548173ffffffffffffffffffffffffffffffffffffffff021916908373ffffffffffffffffffffffffffffffffffffffff1602179055505050611aed806200044d6000396000f3fe6080604052600436106100e85760003560e01c80639ace38c21161008a578063c642747411610059578063c642747414610576578063cd0a314b14610668578063d0549b8514610693578063ee22610b146106be576100e8565b80639ace38c2146103b9578063a0e67e2b146104a1578063b6b55f251461050d578063c01a8c841461053b576100e8565b80632f54bf6e116100c65780632f54bf6e146101b857806333ea3dc81461021f5780637b7985ad1461030757806380f59a6514610348576100e8565b8063025e7c27146100ed57806320ea8d86146101525780632e7700f01461018d575b600080fd5b3480156100f957600080fd5b506101266004803603602081101561011057600080fd5b81019080803590602001909291905050506106f9565b604051808273ffffffffffffffffffffffffffffffffffffffff16815260200191505060405180910390f35b34801561015e57600080fd5b5061018b6004803603602081101561017557600080fd5b8101908080359060200190929190505050610735565b005b34801561019957600080fd5b506101a2610aa6565b6040518082815260200191505060405180910390f35b3480156101c457600080fd5b50610207600480360360208110156101db57600080fd5b81019080803573ffffffffffffffffffffffffffffffffffffffff169060200190929190505050610ab3565b60405180821515815260200191505060405180910390f35b34801561022b57600080fd5b506102586004803603602081101561024257600080fd5b8101908080359060200190929190505050610ad3565b604051808673ffffffffffffffffffffffffffffffffffffffff168152602001858152602001806020018415158152602001838152602001828103825285818151815260200191508051906020019080838360005b838110156102c85780820151818401526020810190506102ad565b50505050905090810190601f1680156102f55780820380516001836020036101000a031916815260200191505b50965050505050505060405180910390f35b34801561031357600080fd5b5061031c610bef565b604051808273ffffffffffffffffffffffffffffffffffffffff16815260200191505060405180910390f35b34801561035457600080fd5b506103a16004803603604081101561036b57600080fd5b8101908080359060200190929190803573ffffffffffffffffffffffffffffffffffffffff169060200190929190505050610c15565b60405180821515815260200191505060405180910390f35b3480156103c557600080fd5b506103f2600480360360208110156103dc57600080fd5b8101908080359060200190929190505050610c8d565b604051808673ffffffffffffffffffffffffffffffffffffffff168152602001858152602001806020018415158152602001838152602001828103825285818151815260200191508051906020019080838360005b83811015610462578082015181840152602081019050610447565b50505050905090810190601f16801561048f5780820380516001836020036101000a031916815260200191505b50965050505050505060405180910390f35b3480156104ad57600080fd5b506104b6610d95565b6040518080602001828103825283818151815260200191508051906020019060200280838360005b838110156104f95780820151818401526020810190506104de565b505050509050019250505060405180910390f35b6105396004803603602081101561052357600080fd5b8101908080359060200190929190505050610e23565b005b34801561054757600080fd5b506105746004803603602081101561055e57600080fd5b8101908080359060200190929190505050610fd8565b005b34801561058257600080fd5b506106666004803603606081101561059957600080fd5b81019080803573ffffffffffffffffffffffffffffffffffffffff16906020019092919080359060200190929190803590602001906401000000008111156105e057600080fd5b8201836020820111156105f257600080fd5b8035906020019184600183028401116401000000008311171561061457600080fd5b91908080601f016020809104026020016040519081016040528093929190818152602001838380828437600081840152601f19601f820116905080830192505050505050509192919290505050611366565b005b34801561067457600080fd5b5061067d6115d2565b6040518082815260200191505060405180910390f35b34801561069f57600080fd5b506106a86115d8565b6040518082815260200191505060405180910390f35b3480156106ca57600080fd5b506106f7600480360360208110156106e157600080fd5b81019080803590602001909291905050506115de565b005b6001818154811061070657fe5b906000526020600020016000915054906101000a900473ffffffffffffffffffffffffffffffffffffffff1681565b600260003373ffffffffffffffffffffffffffffffffffffffff1673ffffffffffffffffffffffffffffffffffffffff16815260200190815260200160002060009054906101000a900460ff166107f4576040517f08c379a00000000000000000000000000000000000000000000000000000000081526004018080602001828103825260098152602001807f6e6f74206f776e6572000000000000000000000000000000000000000000000081525060200191505060405180910390fd5b80600680549050811061086f576040517f08c379a00000000000000000000000000000000000000000000000000000000081526004018080602001828103825260118152602001807f747820646f6573206e6f7420657869737400000000000000000000000000000081525060200191505060405180910390fd5b816006818154811061087d57fe5b906000526020600020906006020160030160009054906101000a900460ff161561090f576040517f08c379a00000000000000000000000000000000000000000000000000000000081526004018080602001828103825260138152602001807f747820616c72656164792065786563757465640000000000000000000000000081525060200191505060405180910390fd5b60006006848154811061091e57fe5b906000526020600020906006020190508060050160003373ffffffffffffffffffffffffffffffffffffffff1673ffffffffffffffffffffffffffffffffffffffff16815260200190815260200160002060009054906101000a900460ff166109ef576040517f08c379a00000000000000000000000000000000000000000000000000000000081526004018080602001828103825260108152602001807f7478206e6f7420636f6e6669726d65640000000000000000000000000000000081525060200191505060405180910390fd5b60008160050160003373ffffffffffffffffffffffffffffffffffffffff1673ffffffffffffffffffffffffffffffffffffffff16815260200190815260200160002060006101000a81548160ff02191690831515021790555060018160040160008282540392505081905550833373ffffffffffffffffffffffffffffffffffffffff167ff0dca620e2e81f7841d07bcc105e1704fb01475b278a9d4c236e1c62945edd5560405160405180910390a350505050565b6000600680549050905090565b60026020528060005260406000206000915054906101000a900460ff1681565b6000806060600080600060068781548110610aea57fe5b906000526020600020906006020190508060000160009054906101000a900473ffffffffffffffffffffffffffffffffffffffff168160010154826002018360030160009054906101000a900460ff168460040154828054600181600116156101000203166002900480601f016020809104026020016040519081016040528092919081815260200182805460018160011615610100020316600290048015610bd45780601f10610ba957610100808354040283529160200191610bd4565b820191906000526020600020905b815481529060010190602001808311610bb757829003601f168201915b50505050509250955095509550955095505091939590929450565b600460009054906101000a900473ffffffffffffffffffffffffffffffffffffffff1681565b60008060068481548110610c2557fe5b906000526020600020906006020190508060050160008473ffffffffffffffffffffffffffffffffffffffff1673ffffffffffffffffffffffffffffffffffffffff16815260200190815260200160002060009054906101000a900460ff1691505092915050565b60068181548110610c9a57fe5b90600052602060002090600602016000915090508060000160009054906101000a900473ffffffffffffffffffffffffffffffffffffffff1690806001015490806002018054600181600116156101000203166002900480601f016020809104026020016040519081016040528092919081815260200182805460018160011615610100020316600290048015610d725780601f10610d4757610100808354040283529160200191610d72565b820191906000526020600020905b815481529060010190602001808311610d5557829003601f168201915b5050505050908060030160009054906101000a900460ff16908060040154905085565b60606001805480602002602001604051908101604052809291908181526020018280548015610e1957602002820191906000526020600020905b8160009054906101000a900473ffffffffffffffffffffffffffffffffffffffff1673ffffffffffffffffffffffffffffffffffffffff1681526020019060010190808311610dcf575b5050505050905090565b60008054906101000a900473ffffffffffffffffffffffffffffffffffffffff1673ffffffffffffffffffffffffffffffffffffffff166323b872dd3330846040518463ffffffff1660e01b8152600401808473ffffffffffffffffffffffffffffffffffffffff1681526020018373ffffffffffffffffffffffffffffffffffffffff1681526020018281526020019350505050602060405180830381600087803b158015610ed257600080fd5b505af1158015610ee6573d6000803e3d6000fd5b505050506040513d6020811015610efc57600080fd5b8101908080519060200190929190505050610f7f576040517f08c379a000000000000000000000000000000000000000000000000000000000815260040180806020018281038252600f8152602001807f5472616e73666572206661696c6564000000000000000000000000000000000081525060200191505060405180910390fd5b3373ffffffffffffffffffffffffffffffffffffffff167f90890809c654f11d6e72a28fa60149770a0d11ec6c92319d6ceb2bb0a4ea1a153447604051808381526020018281526020019250505060405180910390a250565b600260003373ffffffffffffffffffffffffffffffffffffffff1673ffffffffffffffffffffffffffffffffffffffff16815260200190815260200160002060009054906101000a900460ff16611097576040517f08c379a00000000000000000000000000000000000000000000000000000000081526004018080602001828103825260098152602001807f6e6f74206f776e6572000000000000000000000000000000000000000000000081525060200191505060405180910390fd5b806006805490508110611112576040517f08c379a00000000000000000000000000000000000000000000000000000000081526004018080602001828103825260118152602001807f747820646f6573206e6f7420657869737400000000000000000000000000000081525060200191505060405180910390fd5b816006818154811061112057fe5b906000526020600020906006020160030160009054906101000a900460ff16156111b2576040517f08c379a00000000000000000000000000000000000000000000000000000000081526004018080602001828103825260138152602001807f747820616c72656164792065786563757465640000000000000000000000000081525060200191505060405180910390fd5b82600681815481106111c057fe5b906000526020600020906006020160050160003373ffffffffffffffffffffffffffffffffffffffff1673ffffffffffffffffffffffffffffffffffffffff16815260200190815260200160002060009054906101000a900460ff161561128f576040517f08c379a00000000000000000000000000000000000000000000000000000000081526004018080602001828103825260148152602001807f747820616c726561647920636f6e6669726d656400000000000000000000000081525060200191505060405180910390fd5b60006006858154811061129e57fe5b9060005260206000209060060201905060018160050160003373ffffffffffffffffffffffffffffffffffffffff1673ffffffffffffffffffffffffffffffffffffffff16815260200190815260200160002060006101000a81548160ff02191690831515021790555060018160040160008282540192505081905550843373ffffffffffffffffffffffffffffffffffffffff167f5cbe105e36805f7820e291f799d5794ff948af2a5f664e580382defb6339004160405160405180910390a35050505050565b600260003373ffffffffffffffffffffffffffffffffffffffff1673ffffffffffffffffffffffffffffffffffffffff16815260200190815260200160002060009054906101000a900460ff16611425576040517f08c379a00000000000000000000000000000000000000000000000000000000081526004018080602001828103825260098152602001807f6e6f74206f776e6572000000000000000000000000000000000000000000000081525060200191505060405180910390fd5b6000600680549050905060066001816001815401808255809150500390600052602060002090505060006006828154811061145c57fe5b90600052602060002090600602019050848160000160006101000a81548173ffffffffffffffffffffffffffffffffffffffff021916908373ffffffffffffffffffffffffffffffffffffffff160217905550838160010181905550828160020190805190602001906114d0929190611a1a565b5060008160030160006101000a81548160ff021916908315150217905550600081600401819055508473ffffffffffffffffffffffffffffffffffffffff16823373ffffffffffffffffffffffffffffffffffffffff167fd5a05bf70715ad82a09a756320284a1b54c9ff74cd0f8cce6219e79b563fe59d87876040518083815260200180602001828103825283818151815260200191508051906020019080838360005b83811015611590578082015181840152602081019050611575565b50505050905090810190601f1680156115bd5780820380516001836020036101000a031916815260200191505b50935050505060405180910390a45050505050565b60055481565b60035481565b600260003373ffffffffffffffffffffffffffffffffffffffff1673ffffffffffffffffffffffffffffffffffffffff16815260200190815260200160002060009054906101000a900460ff1661169d576040517f08c379a00000000000000000000000000000000000000000000000000000000081526004018080602001828103825260098152602001807f6e6f74206f776e6572000000000000000000000000000000000000000000000081525060200191505060405180910390fd5b806006805490508110611718576040517f08c379a00000000000000000000000000000000000000000000000000000000081526004018080602001828103825260118152602001807f747820646f6573206e6f7420657869737400000000000000000000000000000081525060200191505060405180910390fd5b816006818154811061172657fe5b906000526020600020906006020160030160009054906101000a900460ff16156117b8576040517f08c379a00000000000000000000000000000000000000000000000000000000081526004018080602001828103825260138152602001807f747820616c72656164792065786563757465640000000000000000000000000081525060200191505060405180910390fd5b6000600684815481106117c757fe5b9060005260206000209060060201905060035481600401541015611853576040517f08c379a00000000000000000000000000000000000000000000000000000000081526004018080602001828103825260118152602001807f63616e6e6f74206578656375746520747800000000000000000000000000000081525060200191505060405180910390fd5b60018160030160006101000a81548160ff02191690831515021790555060008160000160009054906101000a900473ffffffffffffffffffffffffffffffffffffffff1673ffffffffffffffffffffffffffffffffffffffff1682600101548360020160405180828054600181600116156101000203166002900480156119115780601f106118ef576101008083540402835291820191611911565b820191906000526020600020905b8154815290600101906020018083116118fd575b505091505060006040518083038185875af1925050503d8060008114611953576040519150601f19603f3d011682016040523d82523d6000602084013e611958565b606091505b50509050806119cf576040517f08c379a00000000000000000000000000000000000000000000000000000000081526004018080602001828103825260098152602001807f7478206661696c6564000000000000000000000000000000000000000000000081525060200191505060405180910390fd5b843373ffffffffffffffffffffffffffffffffffffffff167f5445f318f4f5fcfb66592e68e0cc5822aa15664039bd5f0ffde24c5a8142b1ac60405160405180910390a35050505050565b828054600181600116156101000203166002900490600052602060002090601f016020900481019282601f10611a5b57805160ff1916838001178555611a89565b82800160010185558215611a89579182015b82811115611a88578251825591602001919060010190611a6d565b5b509050611a969190611a9a565b5090565b5b80821115611ab3576000816000905550600101611a9b565b509056fea264697066735822122097ea72b548f01247e1cdfc753ea90ffdda3421940773a7ab112d57f9c05d3cbb64736f6c63430007000033696e76616c6964206e756d626572206f6620726571756972656420636f6e6669726d6174696f6e73",
  "immutableReferences": {},
  "source": "// SPDX-License-Identifier: MIT\npragma solidity >=0.7.0 <0.9.0;\n\ninterface IERC20Token {\n  function transfer(address, uint256) external returns (bool);\n  function approve(address, uint256) external returns (bool);\n  function transferFrom(address, address, uint256) external returns (bool);\n  function totalSupply() external view returns (uint256);\n  function balanceOf(address) external view returns (uint256);\n  function allowance(address, address) external view returns (uint256);\n\n  event Transfer(address indexed from, address indexed to, uint256 value);\n  event Approval(address indexed owner, address indexed spender, uint256 value);\n}\n\ncontract Wallet {\n  //Variables\n  address internal cUsdTokenAddress = 0x874069Fa1Eb16D44d622F2e0Ca25eeA172369bC1;\n\n  address[] public owners;\n  \n  mapping(address => bool) public isOwner;\n\n  uint public numConfirmationsRequired;\n  \n  address public walletAddr;\n  \n  uint public walletBalance;\n\n  struct Transaction {\n    address to;\n    uint value;\n    bytes data;\n    bool executed;\n    uint numConfirmations;\n    mapping(address => bool) isConfirmed;\n  }\n\n  Transaction[] public transactions;\n\n  //Events\n  event Deposit(address indexed sender, uint amount, uint balance);\n  event SubmitTransaction(\n      address indexed owner,\n      uint indexed txIndex,\n      address indexed to,\n      uint value,\n      bytes data\n  );\n  event ConfirmTransaction(address indexed owner, uint indexed txIndex);\n  event RevokeConfirmation(address indexed owner, uint indexed txIndex);\n  event ExecuteTransaction(address indexed owner, uint indexed txIndex);\n\n  \n  //Modifiers\n  modifier onlyOwner() {\n    require(isOwner[msg.sender], \"not owner\");\n    _;\n  }\n\n  modifier txExists(uint _txIndex) {\n    require(_txIndex < transactions.length, \"tx does not exist\");\n    _;\n  }\n\n  modifier notExecuted(uint _txIndex) {\n    require(!transactions[_txIndex].executed, \"tx already executed\");\n    _;\n  }\n\n  modifier notConfirmed(uint _txIndex) {\n    require(!transactions[_txIndex].isConfirmed[msg.sender], \"tx already confirmed\");\n    _;\n  }\n\n  //Constructor\n  constructor(address[] memory _owners, uint _numConfirmationsRequired) {\n    require(\n      _numConfirmationsRequired > 0 && _numConfirmationsRequired <= _owners.length,\n      \"invalid number of required confirmations\"\n    );\n\n    for (uint i = 0; i < _owners.length; i++) {\n      address owner = _owners[i];\n\n        require(owner != address(0), \"invalid owner\");\n        require(!isOwner[owner], \"owner not unique\");\n\n        isOwner[owner] = true;\n        owners.push(owner);\n    }\n\n    numConfirmationsRequired = _numConfirmationsRequired;\n    walletAddr = address(this);\n  }\n\n  //Functions\n  function deposit(uint _amount) public payable {\n    require(\n      IERC20Token(cUsdTokenAddress).transferFrom(msg.sender, address(this), _amount),\n        \"Transfer failed\"\n    );\n\n    emit Deposit(msg.sender, msg.value, address(this).balance);\n\n  }\n\n  function submitTransaction(address _to, uint _value, bytes memory _data)\n    public\n    onlyOwner\n    {\n      uint txIndex = transactions.length;\n      transactions.push();\n      Transaction storage _transaction = transactions[txIndex];\n      _transaction.to = _to;\n      _transaction.value = _value;\n      _transaction.data = _data;\n      _transaction.executed = false;\n      _transaction.numConfirmations = 0;\n\n      emit SubmitTransaction(msg.sender, txIndex, _to, _value, _data);\n  }\n\n\n  function confirmTransaction(uint _txIndex)\n    public\n    onlyOwner\n    txExists(_txIndex)\n    notExecuted(_txIndex)\n    notConfirmed(_txIndex)\n  {\n    Transaction storage _transaction = transactions[_txIndex];\n\n    _transaction.isConfirmed[msg.sender] = true;\n    _transaction.numConfirmations += 1;\n\n    emit ConfirmTransaction(msg.sender, _txIndex);\n  }\n\n  function executeTransaction(uint _txIndex)\n    public\n    onlyOwner\n    txExists(_txIndex)\n    notExecuted(_txIndex)\n  {\n    Transaction storage transaction = transactions[_txIndex];\n\n    require(\n      transaction.numConfirmations >= numConfirmationsRequired,\n      \"cannot execute tx\"\n    );\n\n      transaction.executed = true;\n\n      (bool success, ) = transaction.to.call{value:transaction.value}(transaction.data);\n      require(success, \"tx failed\");\n\n      emit ExecuteTransaction(msg.sender, _txIndex);\n  }\n\n  function revokeConfirmation(uint _txIndex)\n        public\n        onlyOwner\n        txExists(_txIndex)\n        notExecuted(_txIndex)\n    {\n        Transaction storage transaction = transactions[_txIndex];\n\n        require(transaction.isConfirmed[msg.sender], \"tx not confirmed\");\n\n        transaction.isConfirmed[msg.sender] = false;\n        transaction.numConfirmations -= 1;\n\n        emit RevokeConfirmation(msg.sender, _txIndex);\n  }\n\n  function getTransaction(uint _txIndex)\n    public\n    view\n    returns (address to, uint value, bytes memory data, bool executed, uint numConfirmations)\n    {\n        Transaction storage transaction = transactions[_txIndex];\n\n        return (\n            transaction.to,\n            transaction.value,\n            transaction.data,\n            transaction.executed,\n            transaction.numConfirmations\n        );\n\n  }\n  \n  function getOwners() public view returns (address[] memory) {\n    return owners;\n  }\n\n  function getTransactionCount() public view returns (uint) {\n    return transactions.length;\n  }\n\n  function isConfirmed(uint _txIndex, address _owner)\n    public\n    view\n    returns (bool)\n  {\n    Transaction storage transaction = transactions[_txIndex];\n\n    return transaction.isConfirmed[_owner];\n  }\n\n\n\n}\n\ncontract WalletFactory{\n  Wallet[] public wallets;\n\n  mapping(address => uint) public ownerMaps;\n\n  struct Transaction {\n    address to;\n    uint value;\n    bytes data;\n    bool executed;\n    uint numConfirmations;\n    mapping(address => bool) isConfirmed;\n  }\n\n\n  function setConfirmations(uint n) pure internal returns(uint){\n    uint _numConfirmationsRequired;\n    if(n == 1){\n      _numConfirmationsRequired = 1;\n    } else if( n > 1 && n < 5){\n      _numConfirmationsRequired = 2;\n    } else if( n >= 5){\n      _numConfirmationsRequired = 3;\n    }\n\n    return(_numConfirmationsRequired);\n\n  }\n\n  function assignMap(address[] memory _owners, uint _id)internal{\n    for (uint i = 0; i < _owners.length; i++) {\n      address owner = _owners[i];\n      ownerMaps[owner] = _id;\n    }\n  }\n\n  //Functions\n  function createNewWallet(address[] memory _owners) public {\n    require(_owners.length > 0, \"owners required\");\n    \n    uint _numConfirmationsRequired = setConfirmations(_owners.length);\n  \n    Wallet _wallet = new Wallet(_owners, _numConfirmationsRequired);\n\n    wallets.push(_wallet);\n\n    uint walletId = wallets.length - 1;\n    \n    assignMap(_owners, walletId);\n  }\n\n  function deposit(uint _amount) public payable{\n    uint _id = ownerMaps[msg.sender];\n    Wallet _wallet = wallets[_id];\n    _wallet.deposit(_amount);\n  }\n\n  function submitTransaction(address _to, uint _value, bytes memory _data)\n    public\n    {\n      uint _id = ownerMaps[msg.sender];\n      Wallet _wallet = wallets[_id];\n      _wallet.submitTransaction(_to, _value, _data);\n  }\n\n  function confirmTransaction(uint _txIndex) public {\n    uint _id = ownerMaps[msg.sender];\n    Wallet _wallet = wallets[_id];\n    _wallet.confirmTransaction(_txIndex);\n  }\n\n  function executeTransaction(uint _txIndex) public {\n    uint _id = ownerMaps[msg.sender];\n    Wallet _wallet = wallets[_id];\n    _wallet.executeTransaction(_txIndex);\n  }\n\n  function revokeConfirmation(uint _txIndex) public {\n    uint _id = ownerMaps[msg.sender];\n    Wallet _wallet = wallets[_id];\n    _wallet.revokeConfirmation(_txIndex);\n  }\n\n\n  function getTransaction(uint _txIndex)\n      public\n      view\n      returns (address to, uint value, bytes memory data, bool executed, uint numConfirmations)\n    {\n      uint _id = ownerMaps[msg.sender];\n      Wallet _wallet = wallets[_id];\n      (to, value, data, executed, numConfirmations) = _wallet.getTransaction(_txIndex);\n  }\n\n  function getOwners() public view returns(address[] memory owners){\n      uint _id = ownerMaps[msg.sender];\n      Wallet _wallet = wallets[_id];\n\n      owners = _wallet.getOwners();\n  }\n\n  function getTransactionCount() public view returns (uint txLength) {\n    uint _id = ownerMaps[msg.sender];\n    Wallet _wallet = wallets[_id];\n\n    txLength = _wallet.getTransactionCount();\n  }\n\n  function checkConfirmation(uint _txIndex, address _owner) public view returns (bool isConfirmed){\n    uint _id = ownerMaps[msg.sender];\n    Wallet _wallet = wallets[_id];\n\n    isConfirmed = _wallet.isConfirmed(_txIndex, _owner);\n  }\n}\n",
  "sourcePath": "/home/joe/Documents/celoProjects/Tutorial/Multi-Sig-Wallet/multi-sig-wallet/contracts/MultiSigWallet-celo.sol",
  "compiler": {
    "name": "solc",
    "version": "0.7.0+commit.9e61f92b.Emscripten.clang"
  },
  "schemaVersion": "3.4.1",
  "updatedAt": "2021-08-23T08:56:50.476Z",
  "networkType": "ethereum",
  "devdoc": {
    "kind": "dev",
    "methods": {},
    "version": 1
  },
  "userdoc": {
    "kind": "user",
    "methods": {},
    "version": 1
  }
}